:107C0000112484B714BE982F9D7009F0D5D182E05D
:107C10008093C00088E18093C10086E08093C20019
:107C200087E68093C40089E2B2D18EEF809382020E
:107C3000109281021092800210928302C0E0D0E084
:107C400093E0F92EEE24E39425E0D22E31E1C32E09
:107C500079D1813471F476D1182F9FD1123811F473
:107C600082E005C0113811F486E001C083E059D1EB
:107C700068C0823411F484E103C0853419F485E0CE
:107C800094D15FC0853541F45DD1C82F5BD1D0E080
:107C9000D82BCC0FDD1F54C0863521F484E085D16C
:107CA00080E0E5CF843609F032C04CD14BD1B82EFC
:107CB00049D1A82E00E011E045D1F80181938F0150
:107CC000BE12FACF6AD1F5E4AF1201C0FFCFFE01B8
:107CD000F7BEE89507B600FCFDCFFE01A0E0B1E0DD
:107CE0008C9111962C91119790E0922B0C01E7BE8C
:107CF000E895112432961296BA12F2CFFE01D7BE41
:107D0000E89507B600FCFDCFC7BEE8951AC08437DA
:107D100071F418D117D1B82E15D13FD18E01F801C9
:107D200085918F01FED0BA94B110F9CF0AC0853782
:107D300039F433D18EE1F5D085E9F3D08FE097CFD8
:107D40002CD180E1EED084CF9091C00095FFFCCF84
:107D50008093C6000895CF93C82F83E88C0F82309C
:107D600020F08C2F8D7F813121F48DE7EDDF80E2D3
:107D7000C8278C2FCF91E8CF0F931F93CF93DF931A
:107D8000D82F80E1809300041092010410920C041B
:107D900010920D048EE7D8DF80E0DDDF8D2FDBDF72
:107DA00000E014E0CFEF0D1730F4F80181918F015E
:107DB000C81BD1DFF8CF8C2FDF91CF911F910F918E
:107DC000CACF8091C00087FFFCCF8091C00084FDA6
:107DD00001C0A8958091C6000895F3DF8D3719F48E
:107DE000F0DF90E289270895CF92DF92FF920F9300
:107DF0001F93CF93DF93F82ED0E0E3DF8E37E9F7C0
:107E0000ECDF082F8111F9CFE8DFC82F80E8C82EFA
:107E100083E0D82E1FEF80E88C0D8C1730F4DDDF67
:107E2000F60181936F01181BF6CFD7DF1813E5CF4A
:107E300080918003803909F780918C0310918D0324
:107E4000CE3059F4FF20C9F28111D7CF1F1509F4A4
:107E50003CC0D11139C0D1E0D0CFC03170F28130F7
:107E600061F680918E03873141F6A2E0B4E0E1E84B
:107E7000F3E081918D93EB3883E0F807D1F780919F
:107E80008002982F9F5FF1F3191729F0DD2319F372
:107E9000DF5F98D0B2CF809182028111AECFCF50F8
:107EA000EC2FF0E0FD5FAFE8B3E08D91829381E7C6
:107EB0008A0F8C17D0F3C0938202812F83D0109346
:107EC0008002F1109ACF01C001E0802FDF91CF91A5
:107ED0001F910F91FF90DF90CF9008951F93CF9344
:107EE000DF93909183028917C0F4C0918102CF5F24
:107EF000F1F3C093810211E0D8E110930E04C09316
:107F00000F04D0931004809183028F5E35DF8C2F95
:107F10006BDF8111F2CF10928302DF91CF911F911D
:107F20000895909182029D3F09F40ECFE091830263
:107F300091E09E0F90938302F0E0EF5EFB4F808311
:107F400080E4CCCF80E0CADF809182028D3F29F0AF
:107F50008E3F21F0811112C00FC033CF32DF8E3738
:107F600049F0803939F0803379F78DEF80938202C0
:107F700080E308951092820280E036DFE091820271
:107F8000E150E0938202F0E0FD5F80810895E0E639
:107F9000F0E098E1908380830895D4DF803219F077
:107FA00088E0F5DFFFCF84E1BCCFCF93C82FCADFD5
:107FB000C150E9F7CF91F1CF282E80E0E8DFE0E073
:107FC000FF27099410920E0480930F0480E1D4CE11
:027FFE00020679
:0400000300007C007D
:00000001FF
