:107C00001F92CDB7DEB7112484B714BE982F9D7094
:107C100009F0D9D182E08093C00088E18093C1004F
:107C200086E08093C20087E68093C40089E2B6D1E3
:107C30008EEF809382021092810210928002109245
:107C40008302812C912C93E0F92EEE24E39425E01D
:107C5000D22E31E1C32E7DD1813479F47AD189835A
:107C6000A3D18981823811F482E005C0813811F4F2
:107C700086E001C083E05CD16CC0823411F484E101
:107C800003C0853419F485E097D163C0853541F48C
:107C900060D1882E5ED1912C982A880C991C58C0EE
:107CA000863521F484E088D180E0E5CF843609F080
:107CB00036C04FD14ED1B82E4CD1A82E00E011E0E5
:107CC00048D1F80181938F01BE12FACF6DD1F5E44E
:107CD000AF1201C0FFCFF401F7BEE89507B600FC74
:107CE000FDCFB401A0E0B1E02C911296AD0141505E
:107CF0005109FA01808130E0382BFB010901E7BE10
:107D0000E89511246E5F7F4FBA12EECFF401D7BE13
:107D1000E89507B600FCFDCFC7BEE8951AC08437CA
:107D200071F417D116D1B82E14D13ED18401F801C7
:107D300085918F01FDD0BA94B110F9CF0AC0853773
:107D400039F432D18EE1F4D085E9F2D08FE093CFCF
:107D50002BD180E1EDD07FCF9091C00095FFFCCF7B
:107D60008093C6000895CF93C82F83E88C0F82308C
:107D700020F08C2F8D7F813121F48DE7EDDF80E2C3
:107D8000C8278C2FCF91E8CF0F931F93CF93DF930A
:107D9000082F80E1809300041092010410920C04DB
:107DA00010920D048EE7D8DF80E0DDDF802FDBDF6F
:107DB000C0E0D4E01FEFC01720F48991181BD3DF77
:107DC000FACF812FDF91CF911F910F91CCCF80916E
:107DD000C00087FFFCCF8091C00084FD01C0A89542
:107DE0008091C6000895F3DF8D3721F4F0DF90E233
:107DF000982701C0982F892F0895EF92FF920F9333
:107E00001F93CF93DF93F82E10E0E1DF8E37E9F771
:107E1000EADF8111FACFE7DF082FC0E8D3E0EE24D4
:107E2000EA948C2F8058801720F4DDDF8993E81ABC
:107E3000F8CFD9DFE812E9CF80918003803929F7A4
:107E400080918C03C0918D030E3061F4FF20E9F224
:107E50008111DBCFFC1202C080E040C011113DC097
:107E600011E0D3CF003188F2813079F680918E0312
:107E7000873159F6A2E0B4E0E1E8F3E081918D9317
:107E8000EB3883E0F807D1F780918002982F9F5F4D
:107E9000F1F3C91729F0112319F31F5F9AD0B5CF59
:107EA000809182028111B1CF0F50EFE8F3E0202FD3
:107EB00030E02157394F8191D901AE1BBF0B8C9314
:107EC00081E78E0F8017B8F3009382028C2F81D048
:107ED000C0938002F11099CFBFCF81E0DF91CF91A5
:107EE0001F910F91FF90EF9008951F93CF93DF9311
:107EF000909183028917C0F4C0918102CF5FF1F3A2
:107F0000C093810211E0D8E110930E04C0930F04D6
:107F1000D0931004809183028F5E36DF8C2F6DDF4B
:107F20008111F2CF10928302DF91CF911F910895BA
:107F3000909182029D3F09F40FCFE091830291E07E
:107F40009E0F90938302F0E0EF5EFB4F808380E40E
:107F5000CCCF80E0CADF809182028D3F29F08E3F36
:107F600021F0811112C00FC032CF31DF8E3749F0BE
:107F7000803939F0803379F78DEF8093820280E386
:107F800008951092820280E038DFE0918202E15091
:107F9000E0938202F0E0FD5F80810895E0E6F0E08A
:107FA00098E1908380830895D4DF803219F088E0CF
:107FB000F5DFFFCF84E1BCCFCF93C82FCADFC1501C
:107FC000E9F7CF91F1CF282E80E0E8DFE0E0FF274E
:0E7FD000099410920E0480930F0480E1D5CE28
:027FFE00020679
:0400000300007C007D
:00000001FF
